{
  "contractName": "Voting",
  "abi": [
    {
      "constant": true,
      "inputs": [
        {
          "name": "",
          "type": "bytes32"
        }
      ],
      "name": "votesReceived",
      "outputs": [
        {
          "name": "",
          "type": "uint256"
        }
      ],
      "payable": false,
      "stateMutability": "view",
      "type": "function"
    },
    {
      "constant": true,
      "inputs": [],
      "name": "totalTokens",
      "outputs": [
        {
          "name": "",
          "type": "uint256"
        }
      ],
      "payable": false,
      "stateMutability": "view",
      "type": "function"
    },
    {
      "constant": true,
      "inputs": [],
      "name": "tokenPrice",
      "outputs": [
        {
          "name": "",
          "type": "uint256"
        }
      ],
      "payable": false,
      "stateMutability": "view",
      "type": "function"
    },
    {
      "constant": true,
      "inputs": [
        {
          "name": "",
          "type": "uint256"
        }
      ],
      "name": "candidateList",
      "outputs": [
        {
          "name": "",
          "type": "bytes32"
        }
      ],
      "payable": false,
      "stateMutability": "view",
      "type": "function"
    },
    {
      "constant": true,
      "inputs": [
        {
          "name": "",
          "type": "address"
        }
      ],
      "name": "voterInfo",
      "outputs": [
        {
          "name": "voterAddress",
          "type": "address"
        },
        {
          "name": "tokensBought",
          "type": "uint256"
        }
      ],
      "payable": false,
      "stateMutability": "view",
      "type": "function"
    },
    {
      "constant": true,
      "inputs": [],
      "name": "balanceTokens",
      "outputs": [
        {
          "name": "",
          "type": "uint256"
        }
      ],
      "payable": false,
      "stateMutability": "view",
      "type": "function"
    },
    {
      "inputs": [
        {
          "name": "_totalTokens",
          "type": "uint256"
        },
        {
          "name": "_tokenPrice",
          "type": "uint256"
        },
        {
          "name": "_candidateNames",
          "type": "bytes32[]"
        }
      ],
      "payable": false,
      "stateMutability": "nonpayable",
      "type": "constructor"
    },
    {
      "constant": false,
      "inputs": [
        {
          "name": "_quantity",
          "type": "uint256"
        }
      ],
      "name": "buyTokens",
      "outputs": [],
      "payable": true,
      "stateMutability": "payable",
      "type": "function"
    },
    {
      "constant": false,
      "inputs": [
        {
          "name": "candidate",
          "type": "bytes32"
        },
        {
          "name": "tokens",
          "type": "uint256"
        }
      ],
      "name": "voteForCandidate",
      "outputs": [],
      "payable": false,
      "stateMutability": "nonpayable",
      "type": "function"
    },
    {
      "constant": true,
      "inputs": [
        {
          "name": "user",
          "type": "address"
        }
      ],
      "name": "voterDetails",
      "outputs": [
        {
          "name": "",
          "type": "uint256"
        },
        {
          "name": "",
          "type": "uint256[]"
        }
      ],
      "payable": false,
      "stateMutability": "view",
      "type": "function"
    },
    {
      "constant": true,
      "inputs": [],
      "name": "tokensSold",
      "outputs": [
        {
          "name": "",
          "type": "uint256"
        }
      ],
      "payable": false,
      "stateMutability": "view",
      "type": "function"
    },
    {
      "constant": true,
      "inputs": [],
      "name": "allCandidates",
      "outputs": [
        {
          "name": "",
          "type": "bytes32[]"
        }
      ],
      "payable": false,
      "stateMutability": "view",
      "type": "function"
    },
    {
      "constant": true,
      "inputs": [
        {
          "name": "candidate",
          "type": "bytes32"
        }
      ],
      "name": "totalVotesFor",
      "outputs": [
        {
          "name": "",
          "type": "uint256"
        }
      ],
      "payable": false,
      "stateMutability": "view",
      "type": "function"
    }
  ],
  "bytecode": "0x608060405234801561001057600080fd5b50604051610c04380380610c04833981018060405281019080805190602001909291908051906020019092919080518201929190505050826001819055508260028190555081600381905550806000908051906020019061007292919061007b565b505050506100f3565b8280548282559060005260206000209081019282156100bd579160200282015b828111156100bc57825182906000191690559160200191906001019061009b565b5b5090506100ca91906100ce565b5090565b6100f091905b808211156100ec5760008160009055506001016100d4565b5090565b90565b610b02806101026000396000f3006080604052600436106100ba576000357c0100000000000000000000000000000000000000000000000000000000900463ffffffff1680632f265cf7146100bf5780633610724e14610104578063518ab2a8146101245780635938750d1461014f5780636b2dc6b5146101ee5780637021939f146102295780637e1c0c091461026e5780637ff9b5961461029957806381c40715146102c4578063b13c744b14610330578063cdf58d3514610379578063e4494a0f14610403575b600080fd5b3480156100cb57600080fd5b506100ee600480360381019080803560001916906020019092919050505061042e565b6040518082815260200191505060405180910390f35b61012260048036038101908080359060200190929190505050610453565b005b34801561013057600080fd5b50610139610558565b6040518082815260200191505060405180910390f35b34801561015b57600080fd5b50610190600480360381019080803573ffffffffffffffffffffffffffffffffffffffff169060200190929190505050610566565b6040518083815260200180602001828103825283818151815260200191508051906020019060200280838360005b838110156101d95780820151818401526020810190506101be565b50505050905001935050505060405180910390f35b3480156101fa57600080fd5b5061022760048036038101908080356000191690602001909291908035906020019092919050505061064a565b005b34801561023557600080fd5b506102586004803603810190808035600019169060200190929190505050610923565b6040518082815260200191505060405180910390f35b34801561027a57600080fd5b5061028361093b565b6040518082815260200191505060405180910390f35b3480156102a557600080fd5b506102ae610941565b6040518082815260200191505060405180910390f35b3480156102d057600080fd5b506102d9610947565b6040518080602001828103825283818151815260200191508051906020019060200280838360005b8381101561031c578082015181840152602081019050610301565b505050509050019250505060405180910390f35b34801561033c57600080fd5b5061035b600480360381019080803590602001909291905050506109a3565b60405180826000191660001916815260200191505060405180910390f35b34801561038557600080fd5b506103ba600480360381019080803573ffffffffffffffffffffffffffffffffffffffff1690602001909291905050506109c6565b604051808373ffffffffffffffffffffffffffffffffffffffff1673ffffffffffffffffffffffffffffffffffffffff1681526020018281526020019250505060405180910390f35b34801561040f57600080fd5b50610418610a0a565b6040518082815260200191505060405180910390f35b6000600560008360001916600019168152602001908152602001600020549050919050565b8060035402341015801561046957506002548111155b151561047457600080fd5b33600460003373ffffffffffffffffffffffffffffffffffffffff1673ffffffffffffffffffffffffffffffffffffffff16815260200190815260200160002060000160006101000a81548173ffffffffffffffffffffffffffffffffffffffff021916908373ffffffffffffffffffffffffffffffffffffffff16021790555080600460003373ffffffffffffffffffffffffffffffffffffffff1673ffffffffffffffffffffffffffffffffffffffff168152602001908152602001600020600101600082825401925050819055508060026000828254039250508190555050565b600060025460015403905090565b60006060600460008473ffffffffffffffffffffffffffffffffffffffff1673ffffffffffffffffffffffffffffffffffffffff16815260200190815260200160002060010154600460008573ffffffffffffffffffffffffffffffffffffffff1673ffffffffffffffffffffffffffffffffffffffff1681526020019081526020016000206002018080548060200260200160405190810160405280929190818152602001828054801561063a57602002820191906000526020600020905b815481526020019060010190808311610626575b5050505050905091509150915091565b60008060006106e8600460003373ffffffffffffffffffffffffffffffffffffffff1673ffffffffffffffffffffffffffffffffffffffff1681526020019081526020016000206002018054806020026020016040519081016040528092919081815260200182805480156106de57602002820191906000526020600020905b8154815260200190600101908083116106ca575b5050505050610a10565b600460003373ffffffffffffffffffffffffffffffffffffffff1673ffffffffffffffffffffffffffffffffffffffff168152602001908152602001600020600101540392508284111515156107a6576040517f08c379a000000000000000000000000000000000000000000000000000000000815260040180806020018281038252601b8152602001807f596f7520646f6e74206861766520656e6f75676820746f6b656e73000000000081525060200191505060405180910390fd5b83600560008760001916600019168152602001908152602001600020600082825401925050819055506000600460003373ffffffffffffffffffffffffffffffffffffffff1673ffffffffffffffffffffffffffffffffffffffff1681526020019081526020016000206002018054905014156108aa57600091505b6000805490508210156108a957600460003373ffffffffffffffffffffffffffffffffffffffff1673ffffffffffffffffffffffffffffffffffffffff168152602001908152602001600020600201600090806001815401808255809150509060018203906000526020600020016000909192909190915055508180600101925050610822565b5b6108b385610a59565b905083600460003373ffffffffffffffffffffffffffffffffffffffff1673ffffffffffffffffffffffffffffffffffffffff1681526020019081526020016000206002018281548110151561090557fe5b90600052602060002001600082825401925050819055505050505050565b60056020528060005260406000206000915090505481565b60015481565b60035481565b6060600080548060200260200160405190810160405280929190818152602001828054801561099957602002820191906000526020600020905b81546000191681526020019060010190808311610981575b5050505050905090565b6000818154811015156109b257fe5b906000526020600020016000915090505481565b60046020528060005260406000206000915090508060000160009054906101000a900473ffffffffffffffffffffffffffffffffffffffff16908060010154905082565b60025481565b6000806000809150600090505b8351811015610a4f578381815181101515610a3457fe5b90602001906020020151820191508080600101915050610a1d565b8192505050919050565b600080600090505b600080549050811015610aac57600081815481101515610a7d57fe5b90600052602060002001546000191683600019161415610a9f57809150610ad0565b8080600101915050610a61565b7fffffffffffffffffffffffffffffffffffffffffffffffffffffffffffffffff91505b509190505600a165627a7a723058206fe4b144d46bd1bdb1e2ff2ce4d3ef86d1afaf3b94e4e260060ed35e31893d2a0029",
  "source": "pragma solidity ^0.4.24;\n\ncontract Voting {\n  bytes32[] public candidateList;\n\n  uint public totalTokens;\n  uint public balanceTokens;\n  uint public tokenPrice;\n\n  // what is the voter address?\n  // total tokens purchased\n  // tokens voted per candidate\n\n  struct voter {\n    address voterAddress;\n    uint tokensBought;\n    uint[] tokensUsedPerCandidate;\n  }\n\n  mapping(address => voter) public voterInfo;\n\n  mapping(bytes32 => uint) public votesReceived;\n\n  constructor(uint _totalTokens, uint _tokenPrice, bytes32[] _candidateNames) public {\n    totalTokens = _totalTokens;\n    balanceTokens = _totalTokens;\n    tokenPrice = _tokenPrice;\n    candidateList = _candidateNames;\n  }\n\n  function buyTokens(uint _quantity) public payable\n  {\n    require((msg.value >= (tokenPrice * _quantity)) && (_quantity <= balanceTokens));\n    voterInfo[msg.sender].voterAddress = msg.sender;\n    voterInfo[msg.sender].tokensBought+=_quantity;\n    balanceTokens-=_quantity;\n  }\n\n  function voteForCandidate(bytes32 candidate, uint tokens) public\n  {\n    uint availableTokens = voterInfo[msg.sender].tokensBought - totalTokensUsed(voterInfo[msg.sender].tokensUsedPerCandidate);\n    require(tokens <= availableTokens, 'You dont have enough tokens');\n    votesReceived[candidate] += tokens;\n    if(voterInfo[msg.sender].tokensUsedPerCandidate.length==0)\n    {\n      for(uint i=0;i<candidateList.length;i++)\n      {\n          voterInfo[msg.sender].tokensUsedPerCandidate.push(0);\n      }\n    }\n    uint index = indexOfCandidate(candidate);\n    voterInfo[msg.sender].tokensUsedPerCandidate[index] += tokens;\n  }\n  function indexOfCandidate(bytes32 _candidate) private view returns(uint)\n  {\n       for(uint i=0;i<candidateList.length;i++)\n       {\n         if(_candidate == candidateList[i])\n         {\n           return i;\n         }\n       }\n       return uint(-1);\n  }\n  function totalTokensUsed(uint[] _array) private pure returns (uint)\n  {\n      uint totalSum=0;\n      for(uint i=0;i<_array.length;i++)\n      {\n        totalSum+=_array[i];\n      }\n      return totalSum;\n  }\n  function voterDetails(address user) view public returns (uint, uint[]) {\n    return (voterInfo[user].tokensBought, voterInfo[user].tokensUsedPerCandidate);\n  }\n\n  function tokensSold() public view returns (uint) {\n    return totalTokens - balanceTokens;\n  }\n\n  function allCandidates() public view returns (bytes32[]) {\n    return candidateList;\n  }\n\n  function totalVotesFor(bytes32 candidate) public view returns (uint) {\n    return votesReceived[candidate];\n  }\n  //1. Users should be able to purchase tokens\n  //2. Users should be able to vote for candidates with tokens\n  //3. Anyone should be able to lookup voter info\n\n}\n",
  "sourcePath": "/home/mukul/WeightedVotingOnBlockchain/contracts/Voting.sol",
  "compiler": {
    "name": "solc",
    "version": "0.4.24+commit.e67f0147.Emscripten.clang"
  },
  "schemaVersion": "2.0.1",
  "updatedAt": "2018-09-27T16:34:11.458Z"
}